{
  "contractName": "FileRegistry",
  "abi": [
    {
      "anonymous": false,
      "inputs": [
        {
          "indexed": false,
          "internalType": "string",
          "name": "fileId",
          "type": "string"
        },
        {
          "indexed": false,
          "internalType": "string",
          "name": "version",
          "type": "string"
        },
        {
          "indexed": false,
          "internalType": "uint256",
          "name": "timestamp",
          "type": "uint256"
        },
        {
          "indexed": false,
          "internalType": "string",
          "name": "fileHash",
          "type": "string"
        },
        {
          "indexed": true,
          "internalType": "address",
          "name": "owner",
          "type": "address"
        }
      ],
      "name": "FileStored",
      "type": "event"
    },
    {
      "inputs": [
        {
          "internalType": "string",
          "name": "fileId",
          "type": "string"
        },
        {
          "internalType": "string",
          "name": "version",
          "type": "string"
        },
        {
          "internalType": "string",
          "name": "fileHash",
          "type": "string"
        }
      ],
      "name": "storeFile",
      "outputs": [],
      "stateMutability": "nonpayable",
      "type": "function"
    },
    {
      "inputs": [
        {
          "internalType": "string",
          "name": "fileId",
          "type": "string"
        }
      ],
      "name": "getFile",
      "outputs": [
        {
          "internalType": "string",
          "name": "version",
          "type": "string"
        },
        {
          "internalType": "uint256",
          "name": "timestamp",
          "type": "uint256"
        },
        {
          "internalType": "string",
          "name": "fileHash",
          "type": "string"
        },
        {
          "internalType": "address",
          "name": "owner",
          "type": "address"
        }
      ],
      "stateMutability": "view",
      "type": "function"
    }
  ],
  "bytecode": "0x608060405234801561000f575f80fd5b50610b908061001d5f395ff3fe608060405234801561000f575f80fd5b5060043610610034575f3560e01c80637dd77d2b14610038578063e0876aa814610054575b5f80fd5b610052600480360381019061004d91906104f1565b610087565b005b61006e600480360381019061006991906105a1565b6102b2565b60405161007e94939291906106cd565b60405180910390f35b5f80878760405161009992919061075a565b908152602001604051809103902060020180546100b59061079f565b9050146100f7576040517f08c379a00000000000000000000000000000000000000000000000000000000081526004016100ee90610819565b60405180910390fd5b604051806080016040528085858080601f0160208091040260200160405190810160405280939291908181526020018383808284375f81840152601f19601f82011690508083019250505050505050815260200142815260200183838080601f0160208091040260200160405190810160405280939291908181526020018383808284375f81840152601f19601f8201169050808301925050505050505081526020013373ffffffffffffffffffffffffffffffffffffffff168152505f87876040516101c592919061075a565b90815260200160405180910390205f820151815f0190816101e69190610a01565b506020820151816001015560408201518160020190816102069190610a01565b506060820151816003015f6101000a81548173ffffffffffffffffffffffffffffffffffffffff021916908373ffffffffffffffffffffffffffffffffffffffff1602179055509050503373ffffffffffffffffffffffffffffffffffffffff167fb342117bf988fa781e07e012d706459320458f3ef2dea3e0f42d7db4eb7e9f5b878787874288886040516102a29796959493929190610afc565b60405180910390a2505050505050565b60605f60605f805f87876040516102ca92919061075a565b90815260200160405180910390206040518060800160405290815f820180546102f29061079f565b80601f016020809104026020016040519081016040528092919081815260200182805461031e9061079f565b80156103695780601f1061034057610100808354040283529160200191610369565b820191905f5260205f20905b81548152906001019060200180831161034c57829003601f168201915b505050505081526020016001820154815260200160028201805461038c9061079f565b80601f01602080910402602001604051908101604052809291908181526020018280546103b89061079f565b80156104035780601f106103da57610100808354040283529160200191610403565b820191905f5260205f20905b8154815290600101906020018083116103e657829003601f168201915b50505050508152602001600382015f9054906101000a900473ffffffffffffffffffffffffffffffffffffffff1673ffffffffffffffffffffffffffffffffffffffff1673ffffffffffffffffffffffffffffffffffffffff16815250509050805f015181602001518260400151836060015194509450945094505092959194509250565b5f80fd5b5f80fd5b5f80fd5b5f80fd5b5f80fd5b5f8083601f8401126104b1576104b0610490565b5b8235905067ffffffffffffffff8111156104ce576104cd610494565b5b6020830191508360018202830111156104ea576104e9610498565b5b9250929050565b5f805f805f806060878903121561050b5761050a610488565b5b5f87013567ffffffffffffffff8111156105285761052761048c565b5b61053489828a0161049c565b9650965050602087013567ffffffffffffffff8111156105575761055661048c565b5b61056389828a0161049c565b9450945050604087013567ffffffffffffffff8111156105865761058561048c565b5b61059289828a0161049c565b92509250509295509295509295565b5f80602083850312156105b7576105b6610488565b5b5f83013567ffffffffffffffff8111156105d4576105d361048c565b5b6105e08582860161049c565b92509250509250929050565b5f81519050919050565b5f82825260208201905092915050565b5f5b83811015610623578082015181840152602081019050610608565b5f8484015250505050565b5f601f19601f8301169050919050565b5f610648826105ec565b61065281856105f6565b9350610662818560208601610606565b61066b8161062e565b840191505092915050565b5f819050919050565b61068881610676565b82525050565b5f73ffffffffffffffffffffffffffffffffffffffff82169050919050565b5f6106b78261068e565b9050919050565b6106c7816106ad565b82525050565b5f6080820190508181035f8301526106e5818761063e565b90506106f4602083018661067f565b8181036040830152610706818561063e565b905061071560608301846106be565b95945050505050565b5f81905092915050565b828183375f83830152505050565b5f610741838561071e565b935061074e838584610728565b82840190509392505050565b5f610766828486610736565b91508190509392505050565b7f4e487b71000000000000000000000000000000000000000000000000000000005f52602260045260245ffd5b5f60028204905060018216806107b657607f821691505b6020821081036107c9576107c8610772565b5b50919050565b7f46696c6520616c726561647920657869737473000000000000000000000000005f82015250565b5f6108036013836105f6565b915061080e826107cf565b602082019050919050565b5f6020820190508181035f830152610830816107f7565b9050919050565b7f4e487b71000000000000000000000000000000000000000000000000000000005f52604160045260245ffd5b5f819050815f5260205f209050919050565b5f6020601f8301049050919050565b5f82821b905092915050565b5f600883026108c07fffffffffffffffffffffffffffffffffffffffffffffffffffffffffffffffff82610885565b6108ca8683610885565b95508019841693508086168417925050509392505050565b5f819050919050565b5f6109056109006108fb84610676565b6108e2565b610676565b9050919050565b5f819050919050565b61091e836108eb565b61093261092a8261090c565b848454610891565b825550505050565b5f90565b61094661093a565b610951818484610915565b505050565b5b81811015610974576109695f8261093e565b600181019050610957565b5050565b601f8211156109b95761098a81610864565b61099384610876565b810160208510156109a2578190505b6109b66109ae85610876565b830182610956565b50505b505050565b5f82821c905092915050565b5f6109d95f19846008026109be565b1980831691505092915050565b5f6109f183836109ca565b9150826002028217905092915050565b610a0a826105ec565b67ffffffffffffffff811115610a2357610a22610837565b5b610a2d825461079f565b610a38828285610978565b5f60209050601f831160018114610a69575f8415610a57578287015190505b610a6185826109e6565b865550610ac8565b601f198416610a7786610864565b5f5b82811015610a9e57848901518255600182019150602085019450602081019050610a79565b86831015610abb5784890151610ab7601f8916826109ca565b8355505b6001600288020188555050505b505050505050565b5f610adb83856105f6565b9350610ae8838584610728565b610af18361062e565b840190509392505050565b5f6080820190508181035f830152610b1581898b610ad0565b90508181036020830152610b2a818789610ad0565b9050610b39604083018661067f565b8181036060830152610b4c818486610ad0565b90509897505050505050505056fea264697066735822122038a5ac2f54668664c6cfbfe9f293265b12a7883262a50e42824ae7b7206cad6a64736f6c63430008140033",
  "immutableReferences": {},
  "source": "// SPDX-License-Identifier: MIT\npragma solidity ^0.8.20;\n\ncontract FileRegistry {\n    struct File {\n        string version;\n        uint256 timestamp;\n        string hash;\n        address owner;\n    }\n\n    mapping(string => File) private files;\n\n    event FileStored(string fileId, string version, uint256 timestamp, string fileHash, address indexed owner);\n\n    function storeFile(\n        string calldata fileId,\n        string calldata version,\n        string calldata fileHash\n    ) external {\n        require(bytes(files[fileId].hash).length == 0, \"File already exists\");\n        files[fileId] = File({\n            version: version,\n            timestamp: block.timestamp,\n            hash: fileHash,\n            owner: msg.sender\n        });\n        emit FileStored(fileId, version, block.timestamp, fileHash, msg.sender);\n    }\n\n    function getFile(string calldata fileId)\n        external\n        view\n        returns (\n            string memory version,\n            uint256 timestamp,\n            string memory fileHash,\n            address owner\n        )\n    {\n        File memory f = files[fileId];\n        return (f.version, f.timestamp, f.hash, f.owner);\n    }\n}",
  "sourcePath": "L:\\LY_Project\\BlockStore\\file-metadata-chain\\contracts\\FileRegistry.sol",
  "compiler": {
    "name": "solc",
    "version": "0.8.20+commit.a1b79de6.Emscripten.clang"
  },
  "schemaVersion": "3.4.16",
  "updatedAt": "2025-11-30T17:23:33.175Z",
  "devdoc": {
    "kind": "dev",
    "methods": {},
    "version": 1
  },
  "userdoc": {
    "kind": "user",
    "methods": {},
    "version": 1
  }
}