{
  "contractName": "FileRegistry",
  "abi": [
    {
      "anonymous": false,
      "inputs": [
        {
          "indexed": false,
          "internalType": "string",
          "name": "fileId",
          "type": "string"
        },
        {
          "indexed": false,
          "internalType": "string",
          "name": "version",
          "type": "string"
        },
        {
          "indexed": false,
          "internalType": "uint256",
          "name": "timestamp",
          "type": "uint256"
        },
        {
          "indexed": false,
          "internalType": "string",
          "name": "hash",
          "type": "string"
        },
        {
          "indexed": true,
          "internalType": "address",
          "name": "owner",
          "type": "address"
        }
      ],
      "name": "FileStored",
      "type": "event"
    },
    {
      "inputs": [
        {
          "internalType": "string",
          "name": "fileId",
          "type": "string"
        },
        {
          "internalType": "string",
          "name": "version",
          "type": "string"
        },
        {
          "internalType": "string",
          "name": "fileHash",
          "type": "string"
        }
      ],
      "name": "storeFile",
      "outputs": [],
      "stateMutability": "nonpayable",
      "type": "function"
    },
    {
      "inputs": [
        {
          "internalType": "string",
          "name": "fileId",
          "type": "string"
        }
      ],
      "name": "getFile",
      "outputs": [
        {
          "internalType": "string",
          "name": "version",
          "type": "string"
        },
        {
          "internalType": "uint256",
          "name": "timestamp",
          "type": "uint256"
        },
        {
          "internalType": "string",
          "name": "fileHash",
          "type": "string"
        },
        {
          "internalType": "address",
          "name": "owner",
          "type": "address"
        }
      ],
      "stateMutability": "view",
      "type": "function"
    }
  ],
  "bytecode": "0x608060405234801561000f575f80fd5b50610b5a8061001d5f395ff3fe608060405234801561000f575f80fd5b5060043610610034575f3560e01c80637dd77d2b14610038578063e0876aa814610054575b5f80fd5b610052600480360381019061004d919061053e565b610087565b005b61006e600480360381019061006991906105e2565b61021f565b60405161007e94939291906106fa565b60405180910390f35b5f80846040516100979190610785565b908152602001604051809103902060020180546100b3906107c8565b9050146100f5576040517f08c379a00000000000000000000000000000000000000000000000000000000081526004016100ec90610842565b60405180910390fd5b60405180608001604052808381526020014281526020018281526020013373ffffffffffffffffffffffffffffffffffffffff168152505f8460405161013b9190610785565b90815260200160405180910390205f820151815f01908161015c91906109fd565b5060208201518160010155604082015181600201908161017c91906109fd565b506060820151816003015f6101000a81548173ffffffffffffffffffffffffffffffffffffffff021916908373ffffffffffffffffffffffffffffffffffffffff1602179055509050503373ffffffffffffffffffffffffffffffffffffffff167fb342117bf988fa781e07e012d706459320458f3ef2dea3e0f42d7db4eb7e9f5b848442856040516102129493929190610acc565b60405180910390a2505050565b60605f60605f805f866040516102359190610785565b90815260200160405180910390206040518060800160405290815f8201805461025d906107c8565b80601f0160208091040260200160405190810160405280929190818152602001828054610289906107c8565b80156102d45780601f106102ab576101008083540402835291602001916102d4565b820191905f5260205f20905b8154815290600101906020018083116102b757829003601f168201915b50505050508152602001600182015481526020016002820180546102f7906107c8565b80601f0160208091040260200160405190810160405280929190818152602001828054610323906107c8565b801561036e5780601f106103455761010080835404028352916020019161036e565b820191905f5260205f20905b81548152906001019060200180831161035157829003601f168201915b50505050508152602001600382015f9054906101000a900473ffffffffffffffffffffffffffffffffffffffff1673ffffffffffffffffffffffffffffffffffffffff1673ffffffffffffffffffffffffffffffffffffffff16815250509050805f01518160200151826040015183606001519450945094509450509193509193565b5f604051905090565b5f80fd5b5f80fd5b5f80fd5b5f80fd5b5f601f19601f8301169050919050565b7f4e487b71000000000000000000000000000000000000000000000000000000005f52604160045260245ffd5b6104508261040a565b810181811067ffffffffffffffff8211171561046f5761046e61041a565b5b80604052505050565b5f6104816103f1565b905061048d8282610447565b919050565b5f67ffffffffffffffff8211156104ac576104ab61041a565b5b6104b58261040a565b9050602081019050919050565b828183375f83830152505050565b5f6104e26104dd84610492565b610478565b9050828152602081018484840111156104fe576104fd610406565b5b6105098482856104c2565b509392505050565b5f82601f83011261052557610524610402565b5b81356105358482602086016104d0565b91505092915050565b5f805f60608486031215610555576105546103fa565b5b5f84013567ffffffffffffffff811115610572576105716103fe565b5b61057e86828701610511565b935050602084013567ffffffffffffffff81111561059f5761059e6103fe565b5b6105ab86828701610511565b925050604084013567ffffffffffffffff8111156105cc576105cb6103fe565b5b6105d886828701610511565b9150509250925092565b5f602082840312156105f7576105f66103fa565b5b5f82013567ffffffffffffffff811115610614576106136103fe565b5b61062084828501610511565b91505092915050565b5f81519050919050565b5f82825260208201905092915050565b5f5b83811015610660578082015181840152602081019050610645565b5f8484015250505050565b5f61067582610629565b61067f8185610633565b935061068f818560208601610643565b6106988161040a565b840191505092915050565b5f819050919050565b6106b5816106a3565b82525050565b5f73ffffffffffffffffffffffffffffffffffffffff82169050919050565b5f6106e4826106bb565b9050919050565b6106f4816106da565b82525050565b5f6080820190508181035f830152610712818761066b565b905061072160208301866106ac565b8181036040830152610733818561066b565b905061074260608301846106eb565b95945050505050565b5f81905092915050565b5f61075f82610629565b610769818561074b565b9350610779818560208601610643565b80840191505092915050565b5f6107908284610755565b915081905092915050565b7f4e487b71000000000000000000000000000000000000000000000000000000005f52602260045260245ffd5b5f60028204905060018216806107df57607f821691505b6020821081036107f2576107f161079b565b5b50919050565b7f46696c6520616c726561647920657869737473000000000000000000000000005f82015250565b5f61082c601383610633565b9150610837826107f8565b602082019050919050565b5f6020820190508181035f83015261085981610820565b9050919050565b5f819050815f5260205f209050919050565b5f6020601f8301049050919050565b5f82821b905092915050565b5f600883026108bc7fffffffffffffffffffffffffffffffffffffffffffffffffffffffffffffffff82610881565b6108c68683610881565b95508019841693508086168417925050509392505050565b5f819050919050565b5f6109016108fc6108f7846106a3565b6108de565b6106a3565b9050919050565b5f819050919050565b61091a836108e7565b61092e61092682610908565b84845461088d565b825550505050565b5f90565b610942610936565b61094d818484610911565b505050565b5b81811015610970576109655f8261093a565b600181019050610953565b5050565b601f8211156109b55761098681610860565b61098f84610872565b8101602085101561099e578190505b6109b26109aa85610872565b830182610952565b50505b505050565b5f82821c905092915050565b5f6109d55f19846008026109ba565b1980831691505092915050565b5f6109ed83836109c6565b9150826002028217905092915050565b610a0682610629565b67ffffffffffffffff811115610a1f57610a1e61041a565b5b610a2982546107c8565b610a34828285610974565b5f60209050601f831160018114610a65575f8415610a53578287015190505b610a5d85826109e2565b865550610ac4565b601f198416610a7386610860565b5f5b82811015610a9a57848901518255600182019150602085019450602081019050610a75565b86831015610ab75784890151610ab3601f8916826109c6565b8355505b6001600288020188555050505b505050505050565b5f6080820190508181035f830152610ae4818761066b565b90508181036020830152610af8818661066b565b9050610b0760408301856106ac565b8181036060830152610b19818461066b565b90509594505050505056fea26469706673582212205a5a8ab48e07ee7e076ce7353ee1e50593cf416b4e5a3cc3219ab1ed23aaf47264736f6c63430008140033",
  "immutableReferences": {},
  "source": "// SPDX-License-Identifier: MIT\r\npragma solidity ^0.8.0;\r\n\r\ncontract FileRegistry {\r\n    struct File {\r\n        string version;\r\n        uint256 timestamp;\r\n        string hash;   // E.g. IPFS hash or local reference\r\n        address owner;\r\n    }\r\n\r\n    mapping(string => File) private files;\r\n\r\n    event FileStored(string fileId, string version, uint256 timestamp, string hash, address indexed owner);\r\n\r\n    function storeFile(\r\n        string memory fileId,\r\n        string memory version,\r\n        string memory fileHash\r\n    ) public {\r\n        require(bytes(files[fileId].hash).length == 0, \"File already exists\");\r\n        files[fileId] = File({\r\n            version: version,\r\n            timestamp: block.timestamp,\r\n            hash: fileHash,\r\n            owner: msg.sender\r\n        });\r\n        emit FileStored(fileId, version, block.timestamp, fileHash, msg.sender);\r\n    }\r\n\r\n    function getFile(string memory fileId)\r\n        public\r\n        view\r\n        returns (string memory version, uint256 timestamp, string memory fileHash, address owner)\r\n    {\r\n        File memory f = files[fileId];\r\n        return (f.version, f.timestamp, f.hash, f.owner);\r\n    }\r\n}\r\n",
  "sourcePath": "C:\\Users\\Rhythm\\Downloads\\Test 2\\CCIA2\\file-metadata-chain\\contracts\\FileRegistry.sol",
  "compiler": {
    "name": "solc",
    "version": "0.8.20+commit.a1b79de6.Emscripten.clang"
  },
  "schemaVersion": "3.4.16",
  "updatedAt": "2025-04-16T11:38:18.178Z",
  "devdoc": {
    "kind": "dev",
    "methods": {},
    "version": 1
  },
  "userdoc": {
    "kind": "user",
    "methods": {},
    "version": 1
  }
}